S02B0000443A5C694D5852545C494D58313036305F52545F756E7369676E706C6174666F726D5C65766B6D6960
S3156004000049484452000404600100000000000000F6
S315600400100100000000040000000000000000000071
S31560040020FFFFFFFF0000000000000000000000006A
S315600400300000000000000000000000000000000056
S315600400400000000000000000000000000000000046
S315600400500000000000000000000000000000000036
S315600400600000000000000000000000000000000026
S31560040400000002201D07046099070460254A0860FD
S315600404109D0704609F070460A10704600000000054
S31560040420000000000000000000000000B107046046
S31560040430A507046000000000E1070460F1A20760FC
S315600404402B440860334408603B44086043440860B6
S315600404504B440860534408605B4408606344086026
S315600404606B440860734408607B4408608344086096
S315600404708B440860934408609B440860A344086006
S31560040480AB440860B3440860BB440860C344086076
S31560040490CB440860D3440860DB440860E3440860E6
S315600404A0EB440860F3440860FB4408600345086055
S315600404B00B450860134508601B45086023450860C2
S315600404C02B450860334508603B4508604345086032
S315600404D04B450860534508605B45086063450860A2
S315600404E06B450860734508607B4508608345086012
S315600404F08B450860934508609B450860A345086082
S31560040500AB450860B3450860BB450860C3450860F1
S31560040510CB450860D3450860DB450860E345086061
S31560040520EB450860F3450860FB45086003460860D0
S315600405300B460860134608601B460860234608603D
S315600405402B460860334608603B46086043460860AD
S315600405504B460860534608605B460860634608601D
S315600405606B460860734608607B460860834608608D
S315600405708B460860934608609B460860A3460860FD
S31560040580AB460860B3460860BB460860C34608606D
S31560040590CB460860D3460860DB460860E3460860DD
S315600405A0EB460860F3460860FB460860034708604C
S315600405B00B470860134708601B47086023470860B9
S315600405C02B470860334708603B4708604347086029
S315600405D04B470860534708605B4708606347086099
S315600405E06B470860734708607B4708608347086009
S315600405F08B470860934708609B470860A347086079
S31560040600AB470860B3470860BB470860D50008601D
S31560040610C3470860CB470860D3470860DB47086078
S31560040620E3470860EB470860F3470860FB470860E8
S31560040630034808600B480860134808601B48086054
S31560040640234808602B480860334808603B480860C4
S31560040650434808604B480860534808605B48086034
S31560040660634808606B480860734808607B480860A4
S31560040670834808608B480860934808609B48086014
S31560040680A3480860AB480860B3480860BB48086084
S31560040690C3480860CB480860D3480860DB480860F4
S315600406A0E3480860EB480860F3480860FB48086064
S315600406B0034908600B49086048C30A6000000020CB
S315600406C0AC080000E8AE0A60000000006014000098
S315600406D048C30A60000020200000000048C30A6086
S315600406E0000000800000000048C30A600000E0814A
S315600406F000000000C0080020D8000000601400005C
S31560040700000000000000202094D402000000008055
S31560040710000000000000E0810000000010B572B621
S3156004072040F012FC0D4B07E003F10C049A6859681B
S31560040730186800F019F82346094A9342F4D306E090
S315600407401C46596854F8080B00F01DF82346054A00
S315600407509342F5D362B658F042F8FEE7B8060460F1
S31560040760F40604601C070460002393420AD210B4A2
S3156004077050F8044B41F8044B04339342F8D35DF8C4
S31560040780044B7047704700238B4204D2002240F822
S31560040790042B0433F8E77047FEE7FEE7FEE7FEE75F
S315600407A0FEE7FEE7FEE7FEE7FEE7FEE7FFFFFFFF85
S315600407B0074B19680868B0E8F04F80F30988BFF3FF
S315600407C06F8F4FF0000080F311887047AFF300809D
S315600407D028C2222000BF00BFFFFFFFFFFFFFFFFF0D
S315600407E0EFF30980BFF36F8F154B1A681EF0100F75
S315600407F008BF20ED108A20E9F04F10602DE909004A
S315600408004FF0200080F31188BFF34F8FBFF36F8FD3
S315600408103AF086FD4FF0000080F3118809BC196830
S315600408200868B0E8F04F1EF0100F08BFB0EC108AED
S3156004083080F30988BFF36F8F704700BFAFF3008002
S3156004084028C2222000BF00BF91ED007B2DE9F04F46
S315600408502DED088B97B0994615468246DDF8A4B00F
S315600408608DED047B059B069347F6F073069A33EA8F
S3156004087012432CD100230499EB70C2F313030B4388
S315600408804FF06E031DD169216B70002A4FF0660329
S315600408902970AB7009DAB44B289A03261360304684
S315600408A017B0BDEC088BBDE8F08F19F0020F06D1C6
S315600408B019F0040FAD4AAE4B08BF1346ECE7AD4BD7
S315600408C0EAE761222B70AB706A70A84BE4E720F00C
S315600408D02003412B00F05D829DED047BB5EEC07B69
S315600408E0F1EE10FA37D5B1EE470B0123B5EE400BA6
S315600408F00793F1EE10FA00F0458209A840F22D162E
S3156004090001F04AF809984FF47A734643A6F5AB5456
S315600409101C3C94FBF3F48DED0A0B201AB7EE000B26
S3156004092001F06EF841F294139E428DED140B16DCC1
S31560040930634285A1D1E90001CDE91001FBB1D80775
S3156004094013D45B109DED107B9DED106B27EE067B3B
S315600409508DED107BF3E79DED040B0023C6E70020C5
S3156004096085492346CDE91001E8E79DED107B9DEDB1
S31560040970146B012B27EE067B8DED147BE1D19DED87
S315600409800A5B9DED146B85EE067BB2EE046B9FED00
S31560040990705B8DED0C7B9DED0C7BB4EEC57BF1EE4F
S315600409A010FA75D4B2EE045B9FED6B6BB0EE468BBA
S315600409B09DED0C7BB4EEC67BF1EE10FA76DA84EA32
S315600409C0E476B1EE04BB9DED0C7B9FED65AB9FEDCC
S315600409D05E9BFDEEC77BA6EBE47617EE907A0998EC
S315600409E007EE907A201AB8EEE70B01F009F8002CAE
S315600409F08DED0C0B8DED0EAB66DA8DED109B8DEDEA
S31560040A0012ABDDE910019DED106B002041EC170B74
S31560040A109DED125B36EE476B36EE056B8DED126B14
S31560040A208DED107B9DED106BB7EE007BA6EE4B7BD8
S31560040A3087EE0B6B8DED126BB0EE004B3346D90728
S31560040A4052D45B109DED106B9DED127BA6EE047B7C
S31560040A509DED126B27EE067B8DED127B9DED107B73
S31560040A609DED106B27EE067B8DED107BDDE91001A5
S31560040A709DED106B002041EC170B9DED125B36EE7D
S31560040A80476B36EE056B8DED126B8DED107BD6E7FD
S31560040A909DED0C7B013C27EE067B8DED0C7B9DED7D
S31560040AA0144B84EE067B8DED147B74E79DED0C4B45
S31560040AB0013484EE057B8DED0C7B9DED147B27EE76
S31560040AC0057B8DED147B73E78DED10BB8DED12AB5D
S31560040AD0B2D19DED0C6B9DED0A7BB4EEC76BF1EE66
S31560040AE010FA4BD9013F7AE79DED0C5B9DED126BD5
S31560040AF09DED107B9DED122B9DED0E3B012B37EE8C
S31560040B00027B27EE037BA5EE067B8DED0E7B9DEDCA
S31560040B10107B9DED0C6B27EE067B8DED0C7BDDE982
S31560040B200C019DED0C5B4FF0000041EC160B9DED46
S31560040B300E7B35EE465B35EE075B8DED0E5B8DED1C
S31560040B400C6B7FF47EAFC4E79A9999999999C93FDA
S31560040B5000000000006AF8400000000080842E4116
S31560040B600000000000000000B1AE0A60FEAC0A603E
S31560040B7081AE0A607FAE0A60000014409DED0C6B86
S31560040B809DED0A7B37EE467B8DED0A7B9DED0E6B04
S31560040B909DED0A7B37EE467B8DED0A7B9DED146BEE
S31560040BA09DED0A5B85EE067B8DED0A7B9DED0A7BEA
S31560040BB027EE087B8DED0A7B9DED0A7BFDEEC77BF8
S31560040BC017EE906A06EE906A9DED0A7BB8EEE66BC8
S31560040BD037EE467B27EE087B8DED0A7B9DED0A7B1F
S31560040BE0FDEEC77B17EE908AB8F1000FC0F29880CD
S31560040BF0B44B984500F39A80002EC0F29D80B14BA9
S31560040C009E4200F39F80B0498F4200F3A180AF4BB0
S31560040C100A20AF4A013CB6FBF3F1B8FBF3F302FBDF
S31560040C20016602FB038800FB071700FB063600FB20
S31560040C3008F8302329463846053401F8063B57F050
S31560040C4019FE05F10C01304657F014FE05F1120148
S31560040C50404657F00FFE3023EB7400232B75079B39
S31560040C6043EA8404002B00F095809A4B34F0010427
S31560040C70289ADBF8006048BF0334BAF1670F136043
S31560040C804FEAA4040EDCBAF1600F00F38F80BAF168
S31560040C90450F00F0A781BAF1470F05D0BAF1410FAD
S31560040CA000F098804FF0670A002E284649F40069E0
S31560040CB0DCBF0123CBF80030DBF800101129A8BF94
S31560040CC01121013157F0B0FDDBF800300444A34232
S31560040CD040F38381221DC0F28081621C9B1ACBF88B
S31560040CE00030002CDBF8003009F4006780F20681DE
S31560040CF0C4F100085A1C424580F2AA8030232B9A1C
S31560040D0002262B702E236B70DBF8003013602B9B4E
S31560040D101B68002B40F315813E23AB55013610E169
S31560040D2008F57428013E08F510785DE7A8F574287F
S31560040D300136A8F510785CE706F57426013F06F5DA
S31560040D40107659E7A6F574260137A6F5107657E7A7
S31560040D509F427FF76EAF0A216FF009035E4A013442
S31560040D6097FBF1F003FB007702FB076797FBF1F64D
S31560040D7003FB067702FB0788074608F1050898FB1C
S31560040D80F1F856E74FF000086FF00404464647460C
S31560040D904FE7002419F0020F06D119F0040F4F49EA
S31560040DA04F4B08BF0B4661E74E4B5FE7AAF1610301
S31560040DB0052B3FF677AF01A252F823F0D50D0460F8
S31560040DC0A50C0460A50C0460A50C0460E50F046022
S31560040DD0E30C0460069B0498C3F30A52C3F313013D
S31560040DE0F2B1A2F2FF3309F0080959EA06041DD1EB
S31560040DF0002A3D483D490CBF30223122BAF1610FC9
S31560040E0008BF0146284641F079FC324A06460599F0
S31560040E10324B33EA210328BF1346289A13603EE512
S31560040E2050EA0103324B08BF0023DCE7002A029331
S31560040E3033460CBF30223122CDE900012D482E49BC
S31560040E40BAF1610F08BF0146284641F057FCDCE75A
S31560040E5023449E1C122EC1BF113B2B9A132613608A
S31560040E6077B93146284657F0DFFC48B17FEA040873
S31560040E7006F1010604D16B782B702E236B7046E75E
S31560040E80B8F1010F05EB06030CD15A1B002A02DCEC
S31560040E9001363023F0E713F801299A70F5E713F861
S31560040EA00129DA705A1B002AF9DC30232A9A0236A1
S31560040EB02B702E236B703C23AB7008F1FF331360E9
S31560040EC025E700BF3F420F009F860100A086010010
S31560040ED06079FEFFB1AE0A6040420F00FEAC0A6064
S31560040EE081AE0A607FAE0A6083AE0A608BAE0A602A
S31560040EF001FCFFFF93AE0A60A2AE0A6004EB03082E
S31560040F0008F10206122E4DDD7FBB1321284657F0E9
S31560040F108BFC50B301341426731EA34227DD6B1E6B
S31560040F202A19997803F8011F9A42FAD12E2353702D
S31560040F30DBF800301C442B9B113C1C60002C7FF4B6
S31560040F40EBAE09F00803002F41D0002B7FF4A7AC69
S31560040F50AA19561B12F8013D302BFAD03E2BF8D055
S31560040F602E2B7FF49CAC013E99E41326D4E76B1CCC
S31560040F70AA1913F8011B9A4203F8021CF9D13C23FF
S31560040F80A41B02F8013C02342A9B2E221C60731CAB
S31560040F90AA55DBF80020C2B12B9902360A603E22BC
S31560040FA0EA54CEE73FB93146284657F03DFC10B1C6
S31560040FB0013408F103066B1E2C449A7803F8012F5A
S31560040FC09C42FAD12E236370BBE71E46B9E7DBF871
S31560040FD0002013437FF463ACC5E7013BAAF1020A20
S31560040FE0CBF80030DBF80030112B05DD113B2B9A72
S31560040FF013601123CBF80030DBF8006019F4006746
S3156004100006F1020604D13146284657F00DFC044425
S315600410106B782B7040F60803DBF8002009EA0303BB
S31560041020134316BF2E2301266B702B9B1B68002B64
S31560041030C2BF3E23AB55013677B119F0080F0BD109
S31560041040AA19561B12F8013D302BFAD03E2BF8D064
S315600410502E2B08BF06F1FF36002C06F1010305F8B6
S3156004106006A006F10202BABF64422D212B21B4F513
S315600410707A7FE9540ADB4FF47A73B4FBF3F303F132
S315600410803001A954114A02FB0344F21C632C0ADDA5
S31560041090642394FBF3F303F13001A9546FF0630105
S315600410A0013201FB03440A23961C94FBF3F3DBB27F
S315600410B0303403F13001A9541544C3EB4312C3EB36
S315600410C0820304EB43036B70FFF7E9BB18FCFFFF75
S315600410D02DE9F04F2DED0A8B9FEDD39B9FEDD4AB9D
S315600410E09FEDD5BB93B04FF0000804460792CDF848
S315600410F00C800F4617F8016B002E4DD0252EDFF8B5
S3156004110058B34FD00BEB0602636892F88020013B1C
S31560041110D20725D53E4617F8013B5B4493F88030E9
S31560041120DB07F7D46368013B002B636014DB236839
S315600411305A1C226018780BEB000393F88030DD07A5
S3156004114007D445463746214657F0B6FCA846394685
S31560041150CFE708F10108E5E7204642F061FCEAE7DB
S31560041160002B636008DB23685A1C22601D78B54235
S3156004117007D108F10105E9E7204642F051FC05462E
S31560041180F5E72146284657F097FC013504D1039BC1
S3156004119013B94FF0FF330393039813B0BDEC0A8B76
S315600411A0BDE8F08F4B780022A9480A252A2B06BF92
S315600411B08F1C012600263B4617F8019B0BEB0901A1
S315600411C091F88010890600F1C38016F0080F08BFF5
S315600411D06FF00042B9F16C0F40F0C78097F8009049
S315600411E046F002069F1CB9F1780FD5DCB9F1570FAA
S315600411F000F3CC80B9F1250F00F03081B9F1240FEA
S31560041200CADD29F00209B9F1450FC5D14FF0FF31A6
S31560041210636889460131013B002B6360C0F26A81D1
S315600412202368581C20601D780BEB050393F8803007
S31560041230D807EDD46B1CAAD0002A00F06F812B2D41
S3156004124000F061812D2D40F0698146F4007B606871
S3156004125009F10201013800286060C0F256812068F5
S31560041260451C25600578013A0023914611442846B9
S315600412709A46784A04939FED72CB9FED6B8BA1EBF4
S315600412800905B9F1000F40F04B814FF00A09214678
S3156004129057F012FC032009FB0AF9B0EE480B99FBE0
S315600412A0F0F9AAEB0900069000F0AAFBDDED047ADA
S315600412B0B0EE408B0698B8EEE70B00F0A1FBBAF1EE
S315600412C0000F80F2DB81B1EE044BCAF1000AB7EE7F
S315600412D0005B9FED5D7BA7EE445B85EE046BB0EE31
S315600412E0492BB0EE004B1AF0010F19D037EE065BAE
S315600412F0BAF1010F27EE003B28EE058B25EE025B63
S315600413008DED043BDDE90401A6EE005B4FF00000C1
S3156004131041EC100B33EE402B32EE052B00F0B1811D
S31560041320B0EE465B4FEA6A0AA7EE045B27EE077BDC
S315600413308DED047BDDE904019DED043B002041EC69
S31560041340170B33EE473BA6EE053BB0EE436BCAE79D
S3156004135082423FF721AF05FB0299B9F130023FF5AE
S315600413601BAF46F008063B4626E7B9F14C0F04D19D
S3156004137097F8009046F0120634E7B9F1680F7FF4E7
S3156004138032AF97F8009046F004062BE7A9F15809A6
S31560041390B9F1200F3FF600AF01A353F829F000BF5F
S315600413A07518046099110460991104607B180460CF
S315600413B0991104609911046099110460991104608B
S315600413C09911046099110460991104607D14046094
S315600413D0E11404600D1204600D1204600D120460C1
S315600413E0991104607317046099110460991104607B
S315600413F09911046099110460791704609317046065
S31560041400991704609911046099110460A317046024
S31560041410991104606D18046099110460991104604F
S3156004142075180460AFF3008000000000000000003F
S31560041430000000000000F0FF000000000000F07FE4
S315600414409A9999999999B93F000000009999C93F69
S31560041450CCCCCC0C9F860100FFAC0A606368013B70
S31560041460002B636005DB23685A1C22601D78252DDA
S315600414707EE6204642F0D4FA0546F8E716F0080FF1
S3156004148008BF012216F0010909BF079B0026191D32
S31560041490079108BF1E68002A3FF47EAE08EB02057A
S315600414A0636808F10108013B002B636012DB236863
S315600414B05A1C22601878B9F1000F01D106F8010BA5
S315600414C0A845EDD1B9F1000F7FF440AE039B01331B
S315600414D003933BE6204642F0A3FA431CEBD156E65F
S315600414E00A23009246F0200207A9204642F036F904
S315600414F00546EDE020460691049242F091FA06997B
S315600415000546049A90E6B346A1E6204606910492FF
S3156004151042F086FA06990546049AA4E6B346A3E61B
S315600415202E2811D11BF0400F0ED14BF04005636895
S31560041530013B002B636032DB2368581C20601878FB
S3156004154009F1FF39AB469AE6B74B03EB000C9CF8FE
S3156004155080C01CF0200F29D0049B4BF480750BF0DF
S31560041560400E303893420ADC4FF00A0C0CFB03033E
S315600415700493BEF1000FDAD00AF1FF3AD7E707EE1B
S31560041580900AB8EEE77BA7EE0C8BB2EE047B8CEE8A
S3156004159007CBBEF1000FCAD10AF1010AC7E720469C
S315600415A0069142F03DFAA14A0699C9E720F0200C5B
S315600415B00BF48071BCF1450F7FF467AE00293FF4EC
S315600415C064AE61682BF4C07B01390029616022DB5B
S315600415D02168481C206008782B2822D02D281ED02C
S315600415E009F1FF3101354FF0000929440A22A1EBC4
S315600415F0050CBCF1000F07DD8B4B03EB000C9CF86C
S3156004160080C01CF0200F1DD11BF0800F14BFAAEB05
S31560041610090ACA4439E6204642F002FADCE74BF08E
S31560041620800B6168023501390029616006DB216837
S31560041630481C20600878A9F10201D4E7204642F0EC
S31560041640EFF9F8E730384BF4807B013502FB090982
S31560041650606801380028606004DB2068431C2360EE
S315600416600078C4E72046069142F0DAF90A22069920
S31560041670BDE79FED6B6BB1EE047B30E6F9D1B0EE5E
S31560041680492B38EE028B09A838EE000B00F084F97A
S3156004169009984844B0F5806F09901DDD1BF4007FFE
S315600416A0634A4FF022010BFE0A8B11601BF4807FA4
S315600416B03FF472AD1BF0020F0BF0010928D0B9F1AB
S315600416C0000F05D1079B1A1D07921B6883ED008BDB
S315600416D0002D80F2978058E56FF47F7290420ADAA3
S315600416E0B5EE400BF1EE10FA05D0514A2221B0EE68
S315600416F0498B1160DAE71BF4007F04D000F080F9AF
S31560041700B1EE408BD2E700F07BF9B0EE408BCDE7CB
S31560041710B0EE480B0AA800F03FF90A9B7E33002B13
S315600417200A9313DCB5EE408BF1EE10FA1ED0404BF3
S3156004173022229FED408A1A60B9F1000FC8D1079B37
S315600417401A1D07921B6883ED008AC1E7FE2B0DDD27
S31560041750B5EEC08B384A394B2221F1EE10FAB8BF88
S315600417601346334A93ED008A1160E5E7B7EEC88BFA
S31560041770E2E700230092B5E6079B7007454603F14E
S31560041780040207921B684CBFA3F80080C3F800806C
S31560041790DCE408230092A5E60092102326F00602F4
S315600417A0A2E64FF0FF3563680135013B002B6360A9
S315600417B02FDB2368591C216018780BEB000393F820
S315600417C0809019F00109EED1411C3FF4E0AC16F0AB
S315600417D0010A2A4401BF07990B1D0793D1F80090AB
S315600417E0954207D0431C05D00BEB000191F880109D
S315600417F0C90725D5214657F05FF9BAF1000F01D123
S3156004180089F800A0F30745445EBF039B0133039345
S315600418109CE42046049242F003F9049ACDE700BFA3
S315600418200000000000000000FFAC0A609F86010013
S3156004183004D4202000000000A0080020A408002092
S31560041840BAF1000F01D109F8010B6168013501395C
S315600418500029616004DB2168481C20600878BFE7C2
S315600418602046049242F0DCF8049AB9E700920A230F
S31560041870324639E61023009234E63B7800214FF075
S31560041880010C5E2B0DBF7B7801370025023708BF3C
S315600418900125CDE90A11CDE90C11CDE90E11CDE989
S315600418A01011002B3FF478AC591112A803F01F03F2
S315600418B000EB81010CFA03F351F8200C034341F861
S315600418C0203C17F8013B5D2BEBD1ADBB16F001094B
S315600418D03CD04FF0000B6368013B002B63603BDB3D
S315600418E02368591C21601D7828460025AA4219D010
S315600418F0431C17D00028034612A9B8BF00F11F0382
S31560041900D0F1000C4FEA63130CF01F0C01EB830358
S3156004191000F01F0158BFCCF1000153F8203C0B4185
S31560041920D90722D4214657F0C7F8B9F1000F7FF4DE
S31560041930CFAE8BF80090CBE60AA908230868013B72
S315600419406FEA000041F8040BF8D1BFE7079B191D45
S315600419500791D3F800B0BEE72046049242F060F8DF
S31560041960421C0546049ABFD111E4B9F1000F01D1B6
S315600419700BF8010B63680135013B002B636004DBE4
S315600419802368591C21601878B0E72046049242F017
S3156004199047F8049AAAE700BFB5EE400BF7B5F1EE37
S315600419A010FA8DED000B05D100239FED130B036038
S315600419B003B0F0BDDDE90023C3F30A51A1F2FE359D
S315600419C081B9C3F313040099CF0F04F400264900C8
S315600419D047EA4404C4F313040EB9013DF4E764F31F
S315600419E013030A4640F2FE31056061F31E5343EC6D
S315600419F0102BDDE7AFF3008000000000000000005C
S31560041A00B5EE400B82B08DED000BF1EE10FA03D10A
S31560041A109FED0D0B02B07047DDE90023C3F30A5155
S31560041A20084440F2FE71884205DD0B4B22229FED8D
S31560041A30080B1A60EEE70028EADD60F31E5343ECF8
S31560041A40102BE7E7AFF30080000000000000000001
S31560041A50000000000000F07F04D4202000B583B0AD
S31560041A6001900199024800F0D9F800BEFDE700BF75
S31560041A70D890096000B585B001900091019B002B58
S31560041A8002D11148FFF7EAFF009B002B02D10F48F1
S31560041A90FFF7E4FF0E4B1B68002B01D100230FE018
S31560041AA0009A01990B4856F0CFFD0346ADF80E3007
S31560041AB0BDF80E30002B01D1009B01E04FF0FF33DF
S31560041AC0184605B05DF804FBEC9009601491096052
S31560041AD01C3020201430202000B58DB00291019373
S31560041AE003468DF80F3013468DF80E300023ADF89B
S31560041AF02E30019B0593029B069300238DF81C30C0
S31560041B0000238DF81D309DF80F308DF81E300123AB
S31560041B108DF81F3001238DF820309DF80E308DF836
S31560041B2024309DF80E30012B02D105AB0A931EE0DA
S31560041B309DF80E30022B04D143F22153ADF82E30BA
S31560041B4015E09DF80E30032B04D143F22153ADF812
S31560041B502E300CE09DF80E30042B04D143F2215351
S31560041B60ADF82E3003E043F22153ADF82E30BDF8C4
S31560041B702E3043F2215293423CD01C22002120484D
S31560041B8056F038FE1E4B1E4A1A611D4B1B6909AA84
S31560041B90114618463FF0AEFB0346ADF82E30BDF84D
S31560041BA02E30002B02D01748FFF758FF144B1B69E1
S31560041BB0154918463FF0DAFB0346ADF82E30BDF8FA
S31560041BC02E30002B02D01148FFF748FF0C4B1B69DF
S31560041BD00F4918463FF0FAFB0346ADF82E30BDF8C0
S31560041BE02E30002B02D00B48FFF738FF044B1B69DD
S31560041BF0094A1360BDF82E3018460DB05DF804FB33
S31560041C00003020203C9109601430202080910960C6
S31560041C1018302020C49109601C3020200FB400B510
S31560041C20A5B000232293002323930023019302ABE0
S31560041C307C220021184656F0DDFD0D4B1B68002BF7
S31560041C400FD027AB219301AA0A4B2199269842F01B
S31560041C50C0FA2290229A01AB11461846FFF70AFF92
S31560041C602390239B184625B05DF804EB04B07047B7
S31560041C701C302020E13D086084B003900291134635
S31560041C808DF80730029A0C4B134002939DF8073087
S31560041C90002B06D0039B5A68029B1A43039B5A6027
S31560041CA006E0039B5A68029BDB431A40039B5A6017
S31560041CB000BF04B0704700BF00F0FFFF82B000238E
S31560041CC001930023019303E000BF019B0133019359
S31560041CD0019B034A9342F7D900BF00BF02B0704725
S31560041CE03F420F0000B58DB02D4A05AB07CA83E8A5
S31560041CF0070003203CF062F903462A4A5360002336
S31560041D000A930023099300230893002100201FF0FF
S31560041D1063FE08A809AA0AA9234B0293234B0193DD
S31560041D2005AB0093034622481EF05AF80022214967
S31560041D301F481EF08BF800221F491D481EF086F8C6
S31560041D401E482EF0ABFD1E4A002119481EF07EF88F
S31560041D50174B1B6A0B9303E04FF47A7039F0C0F8A3
S31560041D600B9B5B790A2BF7D10B9B5B790A2B0FD103
S31560041D70144B1B781946144B1B781A46134B1B7865
S31560041D801846134B1B780093034612482EF086FDC3
S31560041D9011482EF083FD002318460DB05DF804FB50
S31560041DA054920960D0000020991906606D2106607E
S31560041DB020302020B56E0560D16E056008920960FA
S31560041DC091180560243020202530202026302020DC
S31560041DD0273020202C9209604892096008B53BF0B0
S31560041DE01FFD4FF0DDFE0346012B12D1FFF77AFF8C
S31560041DF00346002B06D008482EF050FD002038F02C
S31560041E00E1FF06E04FF461730122044904482FF0B0
S31560041E108DFE00BF08BD00BF64920960E800002023
S31560041E20D9DB076070B582B001238DF804300023D6
S31560041E308DF8053000238DF806303FF01DFC56F012
S31560041E40C9FC56F08DFC56F00EFC42F074FD01227E
S31560041E504FF400312D48FFF70FFF01AB1A460921F5
S31560041E602B483EF0BFF901AB1A460A2128483EF0DA
S31560041E70B9F901220A21264842F04BFD00220921C4
S31560041E80234842F046FDFFF719FF01220921204845
S31560041E9042F03FFD1F4B0022C3F88420BFF34F8FEF
S31560041EA000BF1C4B5B691B4A23F480335361BFF349
S31560041EB04F8F00BF174BD3F88060730BC3F30E04C8
S31560041EC0F308C3F30905620143F6E0731340AA07F6
S31560041ED010491343C1F874322B465D1E002BF2D1B0
S31560041EE023465C1E002BEBD1BFF34F8F00BFBFF3BD
S31560041EF06F8F00BF00BF02F0EDFD10220121C820E4
S31560041F002EF076FC39F020F8FEE700BF00C00A40E8
S31560041F1000801B4000ED00E000B587B0039002919D
S31560041F200192029B002B02D11548FFF797FD039B94
S31560041F301B680593039B5A68019B1A44039B5A606A
S31560041F4011E0029B5A1C02921B788DF81330059B94
S31560041F501A02059B190E9DF813304B40094951F836
S31560041F60233053400593019B5A1E0192002BE8D1FE
S31560041F70039B059A1A6000BF07B05DF804FB00BFB7
S31560041F808C9609608C92096086B001900091019BE1
S31560041F901B680593019B5B680393039B03F0030330
S31560041FA0002B13D0039B03F0030304930BE0059B00
S31560041FB01A02059B1B0E0A4951F8233053400593B8
S31560041FC0049B01330493049B032BF0D9019B059A6C
S31560041FD01A60019B1A68009B1A6000BF06B07047BE
S31560041FE08C92096000B585B001900091019B002B2D
S31560041FF002D0009B9F2B02D84FF0FF332BE0019B4E
S315600420000393039B1B68164A934202D04FF0FF3337
S3156004201021E0039B5A69039BDB681344009A9A4246
S3156004202002D04FF0FF3316E0039B1B69012B11D1DD
S31560042030039B5B69019A1A44039BDB681946104645
S3156004204042F0D7FC0290039B1B6A029A9A4201D122
S31560042050012300E00023184605B05DF804FB00BFC9
S315600420604948445200B583B00190144B1B681B6801
S31560042070002B15D0114B1B681B68B3F1FF3F0FD0C3
S315600420800E4B1B681B689B690D4A934208D10B4B28
S315600420901B681B681B6823F0FF030A4A934201D836
S315600420A0012306E0054B1B681B685B68019898472B
S315600420B00346184603B05DF804FB00BFF800002031
S315600420C0EFBE0D90FF00010000B585B001901F4B77
S315600420D01B681B68002B15D01C4B1B681B68B3F16F
S315600420E0FF3F0FD0194B1B681B689B69184A9342C4
S315600420F008D1164B1B681B681B6823F0FF03154A3F
S31560042100934201D801231CE0134B1B68002B11D0AA
S3156004211042F04CFC03900D4B1B681B681B690E4A0E
S3156004212012681146019898470290039842F04AFC57
S31560042130029B06E0054B1B681B689B6801989847E1
S315600421400346184605B05DF804FB00BFF80000209E
S31560042150EFBE0D90FF0001005C30202000B583B017
S315600421600190144B1B681B68002B15D0114B1B6820
S315600421701B68B3F1FF3F0FD00E4B1B681B689B694E
S315600421800D4A934208D10B4B1B681B681B6823F0EE
S31560042190FF030A4A934201D8012306E0054B1B68F4
S315600421A01B68DB68019898470346184603B05DF8D8
S315600421B004FB00BFF8000020EFBE0D90FF00010095
S315600421C000B58BB001900091554B0993002305939C
S315600421D00023089300230493019B5B68184642F02E
S315600421E037FC009B1A68019B1A600AE0019B5868D9
S315600421F0019B196805AB022242F048FC099B013B2E
S315600422000993059B222B02D0099B002BEED1099BD7
S31560042210002B01D101237FE0414B0993019B586850
S31560042220019B19684FF40043002242F01DFC08909C
S31560042230089B002B6FD100230393019B5868019B75
S31560042240196803AB1F2242F021FC0890089B002BFF
S3156004225001D0089B60E0019B5868019B1968039B49
S3156004226043F080031F2242F0FFFB0890089B002B7B
S3156004227001D0089B50E0019B5868019B196840F2A5
S31560042280E113042242F0F0FB0890089B002B42D134
S31560042290019B5868019B19684FF49053002242F0E1
S315600422A0E3FB0890089B002B35D12FE0019B58680F
S315600422B0019B196806AB012242F0E8FB0890089B73
S315600422C0002B1DD1019B5868019B196804AB1E2223
S315600422D042F0DCFB069B03F02003002B10D0049B2A
S315600422E003F48873002B0BD00023079303E000BF2D
S315600422F0079B01330793079B0A4A9342F7D90AE07F
S31560042300099B002B02D141F2060305E0099B5A1E84
S315600423100992002BCAD1089B18460BB05DF804FBE2
S31560042320A08601009F86010000B585B001900091EA
S31560042330009B002B02D11148FFF790FB0023039307
S31560042340019B5868019B196802AB012242F09EFB0F
S315600423500390039B002B0BD1029B03F00403002B19
S3156004236003D1009B00221A7002E0009B01221A70BE
S31560042370039B184605B05DF804FB00BFC896096068
S3156004238000B589B0039002910192019B002B02D1A2
S315600423901B48FFF763FB00230793039B5868039B63
S315600423A0196805AB1E2242F071FB0790079B002B50
S315600423B021D1059B03F007030693069B052B02D0E8
S315600423C0069B062B03D1019B01221A7002E0019B36
S315600423D000221A70059B03F007030693069B022BE3
S315600423E002D0069B062B03D1029B01221A7002E0DF
S315600423F0029B00221A70079B184609B05DF804FB1D
S31560042400E8960960014B1B781846704786D42220EB
S3156004241000B585B001900B468DF80330019B002B07
S3156004242001D1002338E0019B039320E0039B1B68E2
S31560042430002B03D0039B5B68002B01D100232BE0A8
S31560042440039B1B68184642F0DAFB0346002B01D156
S31560042450002321E0039B5B68184642F0D0FB0346E9
S31560042460002B01D1002317E0039B48330393039B9E
S315600424701B68002B03D0039B5B68002BD6D1084AEC
S31560042480019B13609DF80330002B01D056F0C8FD04
S31560042490044B01221A700123184605B05DF804FB4B
S315600424A06040202086D4222000B585B0019000913A
S315600424B04FF0FF330393184B1B68002B02D14FF088
S315600424C0FF3324E0144B1B68029317E0029B083326
S315600424D040221946019856F088FA0346002B0AD121
S315600424E000230393009A029B1046194648231A4612
S315600424F056F07CF90AE0029B48330293029B1B6800
S31560042500002B03D0029B5B68002BDFD1039B18462C
S3156004251005B05DF804FB00BF6040202000B5DDB067
S3156004252003AB186002AB196001AB1A6047AB482273
S315600425300021184656F05EF945AB00221A605A60CF
S3156004254047AA03AB11461868FFF7AEFF0346002B94
S3156004255001D000236DE0489B083301AA12689A42B1
S3156004256001D9002365E0479B184656F061FD034692
S31560042570002B01D000235CE0304B469301AB1B6813
S31560042580459345A905AB0822184656F02FF9F8235A
S315600425905B9301AB5B9A1B689A4202D901AB1B68D9
S315600425A05B9305AB0833184602AB5B9A196856F021
S315600425B01DF9479B05AA1146184656F03DFD03468C
S315600425C0002B01D0002334E05B9B5A93012359937B
S315600425D029E001AB1A685A9BD31A5B935B9BB3F5EC
S315600425E0807F02D94FF480735B9302AB1A685A9B5F
S315600425F0D11805AB5B9A184656F0F8F8479A599B7A
S315600426001B02134405AA1146184656F015FD0346E7
S31560042610002B01D000230CE05A9A5B9B13445A9317
S31560042620599B0133599301AB5A9A1B689A42D0D38A
S31560042630012318465DB05DF804FB00BFA8EDECAB62
S3156004264000B599B003900291019205AB482200212E
S31560042650184656F0CFF80023179305AB194603982E
S31560042660FFF722FF0346002B01D000232DE0059BD4
S31560042670002B01D1002328E0059B0821184656F05B
S31560042680DFFC1790179B002B01D100231DE0179BDD
S315600426905B68104A934201D0002316E0179B1A68C0
S315600426A0019B1A60059B03F10802179B1B68194678
S315600426B0104656F0C5FC0246029B1A60029B1B68D4
S315600426C0002B01D1002300E00123184619B05DF800
S315600426D004FB00BFA8EDECAB00B587B003460A4621
S315600426E0ADF8063013468DF80530BDF906301B0A81
S315600426F00593BDF8063003F01F030493059B072B6F
S3156004270002D90E48FFF7AAF9059B9A000C4B1344AD
S315600427100393039B1A680321049B01FA03F3DB43C7
S315600427201A409DF80510049B01FA03F31A43039BB0
S315600427301A6000BF07B05DF804FB00BFF897096034
S3156004274068C00F4000B587B00190019B0593059B57
S315600427501B68049304983CF08DFA0390084A039B23
S3156004276032F91330184642F057FA059B5B6800222B
S31560042770194604983CF0E2FE00BF07B05DF804FB1E
S31560042780B89E0A6000B587B00390029101920093E7
S31560042790009B002B02D11648FFF760F9039B059353
S315600427A0059B1B6804934FF40001049842F052FAA7
S315600427B00223019A029904983CF030FF00BF049802
S315600427C042F041FA034603F40003B3F5000FF6D171
S315600427D0049842F030FA0246009B1A604FF40001F6
S315600427E0049842F037FA0023184607B05DF804FBF4
S315600427F074980960014B1846704700BFD899096000
S3156004280000B583B0124B1B68002B1BD100230193C8
S31560042810FFF7F0FF009009E0019B5A1C0192009AB1
S3156004282011780C4AD154009B0C330093009B1B789F
S31560042830002BF1D1074A019B134400221A70044B02
S3156004284001221A60034B184603B05DF804FB00BF0F
S31560042850744020207040202000B587B00390029118
S315600428600192009300230593029B183300211846B6
S3156004287045F05EF90346002B0CD1099B002B01D170
S31560042880344B62E0089B00221A70009B01221A6096
S3156004289000235AE0039B0433184644F0D8FD0490A1
S315600428A0019B002B28D1049B5B005A1C009B1A6079
S315600428B0009B1B68099A9A4201D2264B45E0089B05
S315600428C004221A700298089B0133049A194644F04C
S315600428D07BFE0590059B002B33D1029B03F10C0014
S315600428E0049B0133089A1344049A194644F06CFE17
S315600428F00590059B002B27E0019B012B23D1049BAC
S315600429005A1C009B1A60009B1B68099A9A4201D262
S31560042910104B1AE0029B0C330021184644F0FEFC6F
S315600429200346DBB20233DAB2089B1A700298089B3C
S315600429300133049A194644F047FE0590059B002B23
S3156004294001E000BF00E000BF059B184607B05DF8D4
S3156004295004FB00BF00B1FFFF00B587B0039002918E
S3156004296001920093009B002B01D1284B49E0019B07
S315600429701B78002B09D1009B012B04D1029842F0ED
S315600429800AFC03463DE0214B3BE0039B04331846B7
S3156004299044F05DFD0490019B1B78042B01D01C4B15
S315600429A02FE0049B5B000133009A9A4201D0174BD7
S315600429B027E00298019B0133049A194644F0B4FD5A
S315600429C00590059B002B18D1029B03F10C00049B18
S315600429D00133019A1344049A194644F0A5FD0590FF
S315600429E0059B002B0BD1029B18330121184644F03A
S315600429F068FC0590059B002B02E000BF00E000BF69
S31560042A00059B184607B05DF804FB00BF80B0FFFF66
S31560042A1080B1FFFF00B587B00390029101920093E5
S31560042A20009B012B01D8164B25E0019B1B68591CA2
S31560042A30019A11601B788DF817309DF81730002BBA
S31560042A4005D09DF81720009B013B9A4201D90C4B97
S31560042A5011E0019B1B680493019B1A689DF817306B
S31560042A601A44019B1A609DF81730049A02990398D8
S31560042A70FFF772FF0346184607B05DF804FB00BF14
S31560042A8080B0FFFF00B589B005900491039202936C
S31560042A900B9B002B01D1114B1CE00A9B01330B9A53
S31560042AA0013A01920093029B039A04990598FFF7F1
S31560042AB0D3FE0790079B002B01D0079B0AE0029B7D
S31560042AC01B68DAB20A9B1A70029B1B685A1C029B2B
S31560042AD01A600023184609B05DF804FB80B0FFFF56
S31560042AE000B587B0039002910192019B022B01D835
S31560042AF01C4B32E0029B1B68591C029A11601B78BE
S31560042B00032B01D0174B28E0029B1B68591C029AC1
S31560042B1011601B78ADF81630BDF816301B02ADF89F
S31560042B201630029B1B68591C029A11601B789AB274
S31560042B30BDF816301343ADF81630BDF81630184696
S31560042B4042F0CCF90490049B002B01D1064B04E0BF
S31560042B50049B1A78039B1A700023184607B05DF825
S31560042B6004FB00BF80B0FFFF80B1FFFF00B585B0F6
S31560042B7001900091009B5B6E002B08D1009B04338F
S31560042B801A460199019846F0D4FA034650E0019B2F
S31560042B901B68002B06DA0021019844F0C9FF03463E
S31560042BA0002B08D1019844F01FFC0246009B9B6DE4
S31560042BB05B009A4201D9204B3AE0009B5B6E019818
S31560042BC098470390039B002B2CD10AE0009B0433A7
S31560042BD01A460199019845F031F90390039B002B3D
S31560042BE022D1019B1B68002B12DA0021019844F064
S31560042BF09FFF0346002BE9D10AE0009B04331A4683
S31560042C000199019845F0BBF80390039B002B0DD105
S31560042C10009B04331946019844F0F4FE0346002BE6
S31560042C20EBDA04E000BF02E000BF00E000BF039BF4
S31560042C30184605B05DF804FB80B0FFFF00B58BB0A5
S31560042C4001900091009B18330021184644F070FFF0
S31560042C500346002B01D10023A0E006AB184644F0DE
S31560042C6083F903AB184644F07FF9009B03F118011E
S31560042C70019B1A1D06AB184646F0FDFF0990099B99
S31560042C80002B71D106AA06A903AB184646F03CF997
S31560042C900990099B002B69D103AB01991846FFF78C
S31560042CA065FF0990099B002B62D13E4B1B6801337B
S31560042CB03C4A1360009B009903AA184646F024F91F
S31560042CC00990099B002B55D1009B01991846FFF783
S31560042CD04DFF0990099B002B4ED1324B1B68013383
S31560042CE0304A1360009B03F10C00009B0C3303AA6B
S31560042CF0194646F009F90990099B002B3ED1009BC1
S31560042D000C3301991846FFF731FF0990099B002B94
S31560042D1036D1244B1B680133224A1360009B03F1AE
S31560042D200C00009B0C3306AA194646F0EDF8099090
S31560042D30099B002B26D1009B0C3301991846FFF79B
S31560042D4015FF0990099B002B1ED1164B1B68013396
S31560042D50144A1360009B18330121184644F0B1FAF3
S31560042D600990099B002B10E000BF0EE000BF0CE049
S31560042D7000BF0AE000BF08E000BF06E000BF04E051
S31560042D8000BF02E000BF00E000BF06AB184644F097
S31560042D90F9F803AB184644F0F5F8099B18460BB0EE
S31560042DA05DF804FB6C40202000B591B0039002915D
S31560042DB00192019B012B07D8029B1B681946039855
S31560042DC0FFF73CFF0346ECE10C21019806F058FB43
S31560042DD00D900D9B002B01D1484BE2E100230E932D
S31560042DE00DE00E9A13465B0013449B001A460D9B36
S31560042DF01344184644F0B8F80E9B01330E930E9AAA
S31560042E00019B9A42EDD30AAB184644F0ADF807AB82
S31560042E10184644F0A9F804AB184644F0A5F8029B9A
S31560042E201B68183319460D9844F076F90F900F9B7A
S31560042E30002B40F06C8101230E9336E00E9A134604
S31560042E405B0013449B001A460D9B98180E9A134612
S31560042E505B0013449B000C3B0D9AD1180E9B9B00A0
S31560042E60029A13441B6818331A4646F04DF80F90BD
S31560042E700F9B002B40F04D810E9A13465B00134462
S31560042E809B001A460D9B134403991846FFF76EFE82
S31560042E900F900F9B002B40F03E81194B1B6801334A
S31560042EA0174A13600E9B01330E930E9A019B9A4246
S31560042EB0C4D3019A13465B0013449B000C3B0D9AE2
S31560042EC0D118039B1A1D0AAB184646F0D4FE0F9020
S31560042ED00F9B002B40F02181019B013B0E930E9BBF
S31560042EE0002B0FD10AAA07AB1146184644F014F911
S31560042EF00F900F9B002B46D02EE100BF80B2FFFFE0
S31560042F006C4020200E9A13465B0013449B000C3BD6
S31560042F100D9A1A440AA907AB184645F0F5FF0F90B7
S31560042F200F9B002B40F0FB8007AB03991846FFF715
S31560042F301DFE0F900F9B002B40F0F3809B4B1B688C
S31560042F4001339A4A13600E9B9B00029A13441B68D2
S31560042F5003F118020AA90AAB184645F0D5FF0F908B
S31560042F600F9B002B40F0DF800AAB03991846FFF7EE
S31560042F70FDFD0F900F9B002B40F0D7808B4B1B6899
S31560042F8001338A4A136007AA07A904AB184645F0B9
S31560042F90BBFF0F900F9B002B40F0C98004AB0399D5
S31560042FA01846FFF7E3FD0F900F9B002B40F0C1809E
S31560042FB07E4B1B6801337D4A13600E9B9B00029A0D
S31560042FC013441B6818460E9B9B00029A13441B68A5
S31560042FD0194604AB1A4645F097FF0F900F9B002BDA
S31560042FE040F0A9800E9B9B00029A13441B680399C8
S31560042FF01846FFF7BBFD0F900F9B002B40F09D809A
S315600430006A4B1B680133694A13600E9B9B00029AE4
S3156004301013441B6803F10C000E9B9B00029A134435
S315600430201B680C3304AA194645F06EFF0F900F9B7C
S31560043030002B40F084800E9B9B00029A13441B680D
S315600430400C3303991846FFF791FD0F900F9B002BE5
S3156004305077D1564B1B680133544A13600E9B9B0011
S31560043060029A13441B6803F10C000E9B9B00029AA0
S3156004307013441B680C3307AA194645F045FF0F90A5
S315600430800F9B002B5FD10E9B9B00029A13441B6817
S315600430900C3303991846FFF769FD0F900F9B002BBD
S315600430A053D1424B1B680133404A13600E9B9B000D
S315600430B0029A13441B681A46039B9B68194610467A
S315600430C043F0C6FF0F900F9B002B40D10E9B9B00D5
S315600430D0029A13441B6803F10C02039B9B6819460E
S315600430E0104643F0B5FF0F900F9B002B31D10E9B1A
S315600430F09B00029A13441B681833184643F042FF38
S315600431000E9B002B27D00E9B013B0E93E7E600BF78
S3156004311022E000BF20E000BF1EE000BF1CE000BF4D
S315600431201AE000BF18E000BF16E000BF14E000BF5D
S3156004313012E000BF10E000BF0EE000BF0CE000BF6D
S315600431400AE000BF08E000BF06E000BF04E000BF7D
S3156004315002E000BF00E000BF0AAB184643F012FF6E
S3156004316007AB184643F00EFF04AB184643F00AFF5C
S3156004317000230E930DE00E9A13465B0013449B00E6
S315600431801A460D9B1344184643F0FCFE0E9B01330E
S315600431900E930E9A019B9A42EDD30D9806F080F930
S315600431A00F9B184611B05DF804FB00BF6C402020ED
S315600431B000B593B0039002910192AF4B1B68013343
S315600431C0AD4A13600EAB184643F0CEFE0BAB184601
S315600431D043F0CAFE08AB184643F0C6FE05AB184674
S315600431E043F0C2FE039B9B69002B40F0A080019BC9
S315600431F003F11801019B03F118020BAB184645F065
S3156004320083FE1190119B002B40F026830BAB039930
S315600432101846FFF7ABFC1190119B002B40F01E8300
S31560043220964B1B680133954A136001990BAA08AB48
S31560043230184644F003FE1190119B002B40F0108356
S315600432400BE0039B1A1D08A908AB184644F097FDCA
S315600432501190119B002B40F00583039B1A1D08AB4C
S315600432601146184644F0CEFB0346002BE9DA019971
S315600432700BAA05AB184644F02AFE1190119B002B4D
S3156004328040F0F2820BE0039B1A1D05A905AB1846B4
S3156004329044F0D4FD1190119B002B40F0E782059B0E
S315600432A0002B07DA05AB0021184644F041FC0346BF
S315600432B0002BE8D105AA08A90BAB184645F024FEF5
S315600432C01190119B002B40F0D3820BAB03991846E7
S315600432D0FFF74CFC1190119B002B40F0CB82674B9F
S315600432E01B680133654A13600BA90EAB03221846AB
S315600432F045F0B1FE1190119B002B40F0BD820BE0AE
S31560043300039B1A1D0EA90EAB184644F038FD1190A6
S31560043310119B002B40F0B282039B1A1D0EAB114623
S31560043320184644F06FFB0346002BE9DABEE00199C8
S31560043330019A0BAB184645F0E7FD1190119B002BE3
S3156004334040F09E820BAB03991846FFF70FFC119071
S31560043350119B002B40F09682484B1B680133474A09
S3156004336013600BA90EAB0322184645F074FE119048
S31560043370119B002B40F088820BE0039B1A1D0EA95B
S315600433800EAB184644F0FBFC1190119B002B40F0E9
S315600433907D82039B1A1D0EAB1146184644F032FB20
S315600433A00346002BE9DA039B10330021184644F0E8
S315600433B0BFFB0346002B79D0019B03F11801019BE7
S315600433C003F118020BAB184645F09EFD1190119B54
S315600433D0002B40F05D820BAB03991846FFF7C6FBE2
S315600433E01190119B002B40F05582244B1B680133CE
S315600433F0224A13600BAA0BA908AB184645F084FD54
S315600434001190119B002B40F0478208AB0399184634
S31560043410FFF7ACFB1190119B002B40F03F82174BDA
S315600434201B680133154A1360039B03F1100208A954
S315600434300BAB184645F068FD1190119B002B40F0CC
S315600434402F820BAB03991846FFF790FB1190119BE3
S31560043450002B40F02782094B1B680133074A13602F
S315600434600BAA0EA90EAB184644F0E8FC1190119B0A
S31560043470002B40F019820FE0684020206C40202029
S31560043480039B1A1D0EA90EAB184644F078FC1190E6
S31560043490119B002B40F00A82039B1A1D0EAB11464A
S315600434A0184644F0AFFA0346002BE9DA019B03F1B0
S315600434B00C01019B03F10C0208AB184645F024FD90
S315600434C01190119B002B40F0F38108AB03991846C9
S315600434D0FFF74CFB1190119B002B40F0EB81A24B44
S315600434E01B680133A04A136008AB0121184644F0F7
S315600434F0CEF81190119B002B40F0DE810BE0039B0C
S315600435001A1D08A908AB184644F039FC1190119BA2
S31560043510002B40F0D381039B1A1D08AB1146184655
S3156004352044F070FA0346002BE9DA019908AA0BAB5A
S31560043530184645F0E9FC1190119B002B40F0C081C0
S315600435400BAB03991846FFF711FB1190119B002BE7
S3156004355040F0B881844B1B680133834A13600BAB1C
S315600435600121184644F093F81190119B002B40F00A
S31560043570AB810BE0039B1A1D0BA90BAB184644F0F9
S31560043580FEFB1190119B002B40F0A081039B1A1D3A
S315600435900BAB1146184644F035FA0346002BE9DABC
S315600435A008AA08A905AB184645F0AEFC1190119B14
S315600435B0002B40F08D8105AB03991846FFF7D6FAC8
S315600435C01190119B002B40F08581674B1B6801337A
S315600435D0654A136005AB0121184644F058F811900A
S315600435E0119B002B40F078810BE0039B1A1D05A903
S315600435F005AB184644F0C3FB1190119B002B40F0B9
S315600436006D81039B1A1D05AB1146184644F0FAF901
S315600436100346002BE9DA0EAA0EA908AB184645F054
S3156004362073FC1190119B002B40F05A8108AB0399EF
S315600436301846FFF79BFA1190119B002B40F05281BC
S31560043640494B1B680133484A13600BAA08A908ABA7
S31560043650184644F03CFC1190119B002B40F04481C9
S315600436600BE0039B1A1D08A908AB184644F0E6FB59
S315600436701190119B002B40F03981089B002B07DACF
S3156004368008AB0021184644F053FA0346002BE8D1F0
S315600436900BAA08A908AB184644F019FC1190119BB3
S315600436A0002B40F025810BE0039B1A1D08A908AB8B
S315600436B0184644F0C3FB1190119B002B40F01A810D
S315600436C0089B002B07DA08AB0021184644F030FA51
S315600436D00346002BE8D108AA0BA90BAB184644F0A5
S315600436E0F6FB1190119B002B40F006810BE0039BC7
S315600436F01A1D0BA90BAB184644F0A0FB1190119B45
S31560043700002B40F0FB800B9B002B07DA0BAB0021F0
S31560043710184644F00DFA0346002BE8D10EAA0BA90D
S315600437200BAB184645F0F0FB1190119B002B40F053
S31560043730E7800BAB03991846FFF718FA1190119BB3
S31560043740002B40F0DF80084B1B680133064A136088
S3156004375005AA0BA90BAB184644F0B9FB1190119B53
S31560043760002B40F0D1800DE06C402020039B1A1D95
S315600437700BA90BAB184644F061FB1190119B002B0F
S3156004378040F0C4800B9B002B07DA0BAB0021184674
S3156004379044F0CEF90346002BE8D1019B03F10C01FA
S315600437A0019B03F1180205AB184645F0ADFB119079
S315600437B0119B002B40F0AC8005AB03991846FFF7CC
S315600437C0D5F91190119B002B40F0A480604B1B68C7
S315600437D001335F4A136005AB0121184643F057FF76
S315600437E01190119B002B40F097800BE0039B1A1DF0
S315600437F005A905AB184644F0C2FA1190119B002B3B
S3156004380040F08C80039B1A1D05AB1146184644F0A4
S31560043810F9F80346002BE9DA029B08AA1146184612
S3156004382043F07AFC1190119B002B79D1029B0C33E7
S315600438300BAA1146184643F06FFC1190119B002B9E
S3156004384070D1029B183305AA1146184643F064FCEE
S315600438501190119B002B66E000BF64E000BF62E03C
S3156004386000BF60E000BF5EE000BF5CE000BF5AE0FE
S3156004387000BF58E000BF56E000BF54E000BF52E00E
S3156004388000BF50E000BF4EE000BF4CE000BF4AE01E
S3156004389000BF48E000BF46E000BF44E000BF42E02E
S315600438A000BF40E000BF3EE000BF3CE000BF3AE03E
S315600438B000BF38E000BF36E000BF34E000BF32E04E
S315600438C000BF30E000BF2EE000BF2CE000BF2AE05E
S315600438D000BF28E000BF26E000BF24E000BF22E06E
S315600438E000BF20E000BF1EE000BF1CE000BF1AE07E
S315600438F000BF18E000BF16E000BF14E000BF12E08E
S3156004390000BF10E000BF0EE000BF0CE000BF0AE09D
S3156004391000BF08E000BF06E000BF04E000BF02E0AD
S3156004392000BF00E000BF0EAB184643F02BFB0BABA9
S31560043930184643F027FB08AB184643F023FB05AB58
S31560043940184643F01FFB119B184613B05DF804FB41
S315600439506C40202000B59BB00390029101920093C5
S31560043960924B1B680133914A1360019B1833002103
S31560043970184644F0DDF80346002B05D100990298F9
S3156004398041F0CAFB034607E3009B1B6A002B0ED07B
S31560043990009B18330021184644F0CAF80346002BEE
S315600439A005D10199029841F0B7FB0346F4E2009B06
S315600439B01B6A002B0AD0009B18330121184644F079
S315600439C0B7F80346002B01D0794BE5E216AB1846EF
S315600439D043F0CAFA13AB184643F0C6FA10AB18465E
S315600439E043F0C2FA0DAB184643F0BEFA0AAB18466A
S315600439F043F0BAFA07AB184643F0B6FA04AB184676
S31560043A0043F0B2FA019B03F11801019B03F118021A
S31560043A1016AB184645F078FA1990199B002B40F0BE
S31560043A20538216AB03991846FFF7A0F81990199BB1
S31560043A30002B40F04B825F4B1B6801335D4A136079
S31560043A40019B03F1180216A913AB184645F05CFAFC
S31560043A501990199B002B40F03B8213AB03991846CF
S31560043A60FFF784F81990199B002B40F03382514B71
S31560043A701B6801334F4A1360009A16A916AB1846A1
S31560043A8045F042FA1990199B002B40F0258216AB3B
S31560043A9003991846FFF76AF81990199B002B40F0B2
S31560043AA01D82444B1B680133424A1360009B03F139
S31560043AB00C0213A913AB184645F026FA1990199B04
S31560043AC0002B40F00D8213AB03991846FFF74EF8AE
S31560043AD01990199B002B40F00582364B1B68013305
S31560043AE0344A1360019A16A916AB184644F0EFF9E6
S31560043AF01990199B002B40F0F7810BE0039B1A1D6C
S31560043B0016A916AB184644F099F91990199B002B1F
S31560043B1040F0EC81169B002B07DA16AB00211846A1
S31560043B2044F006F80346002BE8D1019B03F10C022E
S31560043B3013A913AB184644F0CAF91990199B002BC4
S31560043B4040F0D6810BE0039B1A1D13A913AB1846EC
S31560043B5044F074F91990199B002B40F0CB81139BA8
S31560043B60002B07DA13AB0021184643F0E1FF034646
S31560043B70002BE8D116AB0021184643F0D9FF034663
S31560043B80002B19D113AB0021184643F0D1FF03462D
S31560043B90002B06D1019A02990398FFF709FB199045
S31560043BA0DDE1029841F0F7FA1990D8E164402020EB
S31560043BB080B0FFFF6C402020019B03F1180116AA18
S31560043BC004AB184645F0A0F91990199B002B40F0F8
S31560043BD0938104AB03991846FEF7C8FF1990199BA5
S31560043BE0002B40F08B819C4B1B6801339A4A13600F
S31560043BF016AA16A910AB184645F086F91990199BB2
S31560043C00002B40F07D8110AB03991846FEF7AEFF9A
S31560043C101990199B002B40F075818F4B1B680133FB
S31560043C208D4A136016AA10A90DAB184645F06CF9B7
S31560043C301990199B002B40F067810DAB03991846C8
S31560043C40FEF794FF1990199B002B40F05F81824B1D
S31560043C501B680133804A1360019A10A910AB184699
S31560043C6045F052F91990199B002B40F0518110AB25
S31560043C7003991846FEF77AFF1990199B002B40F0BA
S31560043C804981754B1B680133734A136010A916ABDF
S31560043C900222184645F0DFF91990199B002B40F073
S31560043CA03B810BE0039B1A1D16A916AB184644F01C
S31560043CB066F81990199B002B40F03081039B1A1DFE
S31560043CC016AB1146184643F09DFE0346002BE9DA0F
S31560043CD013AA13A90AAB184645F016F91990199B4D
S31560043CE0002B40F01D810AAB03991846FEF73EFF90
S31560043CF01990199B002B40F01581574B1B680133B3
S31560043D00554A136016AA0AA90AAB184644F0DFF8A6
S31560043D101990199B002B40F007810BE0039B1A1D39
S31560043D200AA90AAB184644F089F81990199B002B26
S31560043D3040F0FC800A9B002B07DA0AAB0021184688
S31560043D4043F0F6FE0346002BE8D10DAA0AA90AAB96
S31560043D50184644F0BCF81990199B002B40F0E88093
S31560043D600BE0039B1A1D0AA90AAB184644F066F8D1
S31560043D701990199B002B40F0DD800A9B002B07DA13
S31560043D800AAB0021184643F0D3FE0346002BE8D164
S31560043D900AAA10A910AB184644F099F81990199B11
S31560043DA0002B40F0C9800BE0039B1A1D10A910ABD1
S31560043DB0184644F043F81990199B002B40F0BE80D6
S31560043DC0109B002B07DA10AB0021184643F0B0FEB7
S31560043DD00346002BE8D113AA10A910AB184645F088
S31560043DE093F81990199B002B40F0AA8010AB0399A5
S31560043DF01846FEF7BBFE1990199B002B40F0A28073
S31560043E00154B1B680133144A1360019B03F10C02C2
S31560043E100DA90DAB184645F077F81990199B002B40
S31560043E2040F092800DAB03991846FEF79FFE1990F9
S31560043E30199B002B40F08A80074B1B680133064AA6
S31560043E4013600DAA10A907AB184644F040F8199000
S31560043E50199B002B7CD10CE06C402020039B1A1D1F
S31560043E6007A907AB184643F0E9FF1990199B002B85
S31560043E7070D1079B002B07DA07AB0021184643F085
S31560043E8057FE0346002BE9D1029B0AAA114618463F
S31560043E9043F042F91990199B002B5DD1029B0C33B8
S31560043EA007AA1146184643F037F91990199B002B57
S31560043EB054D1029B183304AA1146184643F02CF9D0
S31560043EC01990199B002B4AE000BF48E000BF46E00A
S31560043ED000BF44E000BF42E000BF40E000BF3EE0F8
S31560043EE000BF3CE000BF3AE000BF38E000BF36E008
S31560043EF000BF34E000BF32E000BF30E000BF2EE018
S31560043F0000BF2CE000BF2AE000BF28E000BF26E027
S31560043F1000BF24E000BF22E000BF20E000BF1EE037
S31560043F2000BF1CE000BF1AE000BF18E000BF16E047
S31560043F3000BF14E000BF12E000BF10E000BF0EE057
S31560043F4000BF0CE000BF0AE000BF08E000BF06E067
S31560043F5000BF04E000BF02E000BF00E000BF16AB94
S31560043F60184643F00FF813AB184643F00BF810AB42
S31560043F70184643F007F80DAB184643F003F80AAB4E
S31560043F80184642F0FFFF07AB184642F0FBFF04AB4E
S31560043F90184642F0F7FF199B18461BB05DF804FB00
S31560043FA000B58FB0039002910192009300230C93A5
S31560043FB0039B9B6D0733DB080B9308AB184642F0F3
S31560043FC0D3FF05AB184642F0CFFF08A8009B019AC1
S31560043FD00B9945F005FE0D900D9B002B40F0A580D6
S31560043FE009E008AB0121184643F0F5FB0D900D9BE3
S31560043FF0002B40F09C80039B1A1D08AB11461846A3
S3156004400043F000FD0346002BEBDA0C9B5A1C0C9222
S315600440100A2B01DD574BA8E008AB0121184643F093
S3156004402087FD0346002BD0DD029B03F11800029B3B
S31560044030183308AA194644F067FF0D900D9B002BB0
S3156004404077D1029B183303991846FEF78FFD0D90BE
S315600440500D9B002B6FD1484B1B680133464A136096
S3156004406008AA08A905AB184644F04EFF0D900D9BAF
S31560044070002B62D105AB03991846FEF777FD0D90C8
S315600440800D9B002B5BD13C4B1B6801333A4A136092
S31560044090029B029905AA184644F036FF0D900D9BC3
S315600440A0002B4ED1029B03991846FEF75FFD0D90D7
S315600440B00D9B002B47D1304B1B6801332E4A13608E
S315600440C008AA05A905AB184644F01EFF0D900D9B82
S315600440D0002B3AD105AB03991846FEF747FD0D90C0
S315600440E00D9B002B33D1244B1B680133224A13608A
S315600440F0029B03F10C00029B0C3305AA194644F09B
S3156004410003FF0D900D9B002B23D1029B0C33039967
S315600441101846FEF72BFD0D900D9B002B1BD1164BFD
S315600441201B680133144A136016E000BF14E000BF35
S3156004413012E000BF10E000BF0EE000BF0CE000BF5D
S315600441400AE000BF08E000BF06E000BF04E000BF6D
S3156004415002E000BF00E000BF08AB184642F012FF61
S3156004416005AB184642F00EFF0D9B18460FB05DF87E
S3156004417004FB00BF00B3FFFF6C40202000B58DB088
S31560044180039002910192009308AB184642F0ECFE4C
S3156004419005AB184642F0E8FE039B4C3300211846F3
S315600441A043F0BCF80346012B01D0244B42E00021C6
S315600441B0029843F0B3F80346002B0CBF0123002397
S315600441C0DBB21A460F9B1A7008AB0299184642F086
S315600441D0A3FF0B900B9B002B1ED1039B03F14C0199
S315600441E005AB029A184643F072FE0B900B9B002BAC
S315600441F014D10F9B1A7805A908AB184642F0E7FF5D
S315600442000B900B9B002B0BD108AB9DF838200099C3
S31560044210019841F03CF804E000BF02E000BF00E012
S3156004422000BF05AB184642F0ADFE08AB184642F037
S31560044230A9FE0B9B18460DB05DF804FB80B0FFFF2A
S3156004424000B591B0099008910792069300238DF802
S3156004425033309DF833301946099841F0FDFA034628
S315600442608DF832309DF83230013B012202FA03F3B5
S315600442708DF83130099BDA6D9DF8323013445A1E3D
S315600442809DF83230B2FBF3F30B939DF83330002B79
S315600442900AD0099B5B6F002B06D0099B5B6F0D935D
S315600442A001238DF83A302AE09DF8313024211846EE
S315600442B005F0E6F80D900D9B002B02D1454B0F934C
S315600442C055E000238DF83B3010E09DF83B20134603
S315600442D0DB0013449B001A460D9B1344184640F0BA
S315600442E02CFE9DF83B3001338DF83B309DF83B2026
S315600442F09DF831309A42E8D300238DF83A309DF820
S315600443003A30002B1AD19DF83220149B01930B9BF3
S3156004431000931346069A0D99099841F070F80F9028
S315600443200F9B002B22D19DF83330002B06D0099BBE
S315600443300D9A5A679DF83120099B9A67149B0593D9
S31560044340139B0493129B03930B9B02939DF8323049
S3156004435001939DF8313000930D9B079A089909984B
S3156004436041F02FFA0F900F9B002B00E000BF099BD2
S315600443705B6F0D9A9A4201D100230D930D9B002B1E
S315600443801DD000238DF83B3010E09DF83B2013468A
S31560044390DB0013449B001A460D9B1344184640F0F9
S315600443A034FE9DF83B3001338DF83B309DF83B205D
S315600443B09DF831309A42E8D30D9805F071F80F9B59
S315600443C0002B02D0089840F020FE0F9B184611B0CF
S315600443D05DF804FB80B2FFFF00B58BB007900691D1
S315600443E005920493194B09930599079800F0CAF945
S315600443F00990099B002B1FD10499079800F09EF938
S315600444000990099B002B19D1104B0993079840F02A
S3156004441082FD0346012B13D10E9B02930D9B0193E0
S315600444200C9B0093049B059A06990798FFF708FF6F
S315600444300990099B002B03E000BF02E000BF00E087
S3156004444000BF099B18460BB05DF804FB80B0FFFF04
S3156004445000B58BB001900091009B0021184643F093
S3156004446067FB0346002B1EDB009B0C3300211846BA
S3156004447043F05EFB0346002B15DB009A019B043375
S315600444801946104643F0BEFA0346002B0BDA009B2E
S3156004449003F10C02019B04331946104643F0B2FA49
S315600444A00346002B01DB7B4BF0E006AB184642F07B
S315600444B05BFD03AB184642F057FD009B03F10C010C
S315600444C0009B03F10C0206AB184644F01DFD0990EF
S315600444D0099B002B40F0B88006AB01991846FEF79D
S315600444E045FB0990099B002B40F0B0806A4B1B6822
S315600444F00133694A13600099009A03AB184644F085
S3156004450003FD0990099B002B40F0A28003AB01993F
S315600445101846FEF72BFB0990099B002B40F09A8006
S315600445205D4B1B6801335C4A1360019B9B69002BDE
S3156004453022D103A903AB0322184643F032FD099046
S31560044540099B002B40F088800AE0019B1A1D03A991
S3156004455003AB184643F072FC0990099B002B7DD18E
S31560044560039B002B2ADA03AB0021184643F0E0FADA
S315600445700346002BE9D121E0019B03F1100203A954
S3156004458003AB184643F05AFC0990099B002B67D18C
S315600445900AE0019B1A1D03A903AB184643F0EFFB1F
S315600445A00990099B002B5DD1019B1A1D03AB114633
S315600445B0184643F027FA0346002BEADA009A03A961
S315600445C003AB184644F0A0FC0990099B002B4BD121
S315600445D003AB01991846FEF7C9FA0990099B002BAB
S315600445E044D12D4B1B6801332B4A1360019B03F1A5
S315600445F01C0203A903AB184643F020FC0990099BEF
S31560044600002B35D10AE0019B1A1D03A903AB18469A
S3156004461043F0B5FB0990099B002B2BD1019B1A1D16
S3156004462003AB1146184643F0EDF90346002BEADA6C
S3156004463003AA06AB1146184643F0E4F90346002B79
S315600446401AD0144B099318E000BF16E000BF14E0BB
S3156004465000BF12E000BF10E000BF0EE000BF0CE038
S3156004466000BF0AE000BF08E000BF06E000BF04E048
S3156004467000BF02E000BF00E000BF06AB184642F090
S3156004468081FC03AB184642F07DFC099B18460BB0CF
S315600446905DF804FB80B3FFFF6C40202000B593B047
S315600446A0059004910392029306AB1093049B0F93B7
S315600446B0059840F030FC0346012B01D01E4B37E0D1
S315600446C006AB184640F039FC169B0093029B039A8E
S315600446D01099059841F004F91190119B002B1DD196
S315600446E0169B0093159B149A0F99059841F0F8F858
S315600446F01190119B002B13D10F9B109A0F9905985B
S31560044700FFF728F91190119B002B0BD10F9905988F
S31560044710FEF794FA1190119B002B04E000BF02E0AF
S3156004472000BF00E000BF06AB184640F06EFC119B6C
S31560044730184613B05DF804FB80B1FFFF00B583B083
S3156004474001900091009B18330121184643F0F0F95B
S315600447500346002B01D0094B0CE0019840F0DBFBCB
S315600447600346012B05D100990198FFF771FE0346B4
S3156004477000E0034B184603B05DF804FB80B3FFFF0B
S3156004478080B0FFFF00B583B001900091019840F0BE
S31560044790C2FB0346012B13D10121009843F0C8F9EB
S315600447A00346002B08DB019B4C331946009843F003
S315600447B029F90346002B01DB044B02E0002300E0E9
S315600447C0034B184603B05DF804FB00BF80B3FFFFDC
S315600447D080B0FFFF00B589B0039002910192009307
S315600447E0234B0793039BDB6D0733DB080593039821
S315600447F040F091FB0346012B30D100230693009BC6
S31560044800019A0599029845F0EBF90790079B002BEE
S3156004481026D1059BDA00039BDB6DD31A19460298F1
S3156004482042F0D9FF0790079B002B1BD1069B0133EF
S315600448300693069B1E2B01DD0E4B15E001210298A3
S3156004484043F076F90346002BD9DB039B4C331946B8
S31560044850029843F0D7F80346002BD0DA00BF02E093
S3156004486000BF00E000BF079B184609B05DF804FB73
S3156004487080B0FFFF00B3FFFF10B5AEB003900291A6
S31560044880039B1B78002B29D0039B1A78029B1B7809
S315600448909A4223D1039B03F18802029B883319460B
S315600448A0104643F0AFF80346002B17D1039B03F180
S315600448B09402029B94331946104643F0A3F80346C8
S315600448C0002B0BD1039B03F1A002029BA033194674
S315600448D0104643F097F80346002B01D02A4B50E06C
S315600448E024AB184640F029FB05AB184640F03AFB6A
S315600448F0029A05AB1146184640F03EFC029B03F152
S315600449007C02029B283324A905A800240194002470
S31560044910009440F0CEFF2D902D9B002B25D1029B59
S3156004492003F1880224AB1146184643F06BF803463C
S31560044930002B17D1029B03F1940224AB0C3311466E
S31560044940184643F05FF80346002B0BD1029B03F134
S31560044950A00224AB18331146184643F053F80346B5
S31560044960002B04D0084B2D9302E000BF00E000BF8B
S3156004497024AB184640F049FB05AB184640F05EFB95
S315600449802D9B18462EB010BD80B0FFFF82B00190FB
S31560044990019B01221A60019B01225A60019B024A13
S315600449A09A6000BF02B070471C01002000B58DB04C
S315600449B00B900B468DF82B300B9840F03FFB0B9B0E
S315600449C09DF82B201A709DF82B30032B1CD10B9B62
S315600449D0114A5A6620230893104B079320230693A3
S315600449E00F4B0593202304930E4B039320230293CA
S315600449F00D4B0193202300930C4B20220C490B98FA
S31560044A0041F032F8034603E00B9840F017FB094B7C
S31560044A1018460DB05DF804FBD55B0860909A096092
S31560044A20709A0960509A0960309A0960109A096010
S31560044A30F099096080B1FFFF82B001900B468DF852
S31560044A4003309DF803300349019A41F8232000BFDF
S31560044A5002B070477840202084B00190002303930D
S31560044A600FE00B4A039B52F82330019A9A4205D110
S31560044A70074A039B002142F8231006E0039B013397
S31560044A800393039B032BECDD00BF00BF04B07047A8
S31560044A907840202084B0019000238DF80F300023E5
S31560044AA002930DE00A4A029B52F82330019A9A4215
S31560044AB003D101238DF80F3005E0029B0133029385
S31560044AC0029B032BEEDD9DF80F30184604B0704749
S31560044AD07840202000B599B016AB184639F01EFF11
S31560044AE016AB1946074839F035FF01AB184653F043
S31560044AF068FB01AB1946044853F09AFC00BF19B031
S31560044B005DF804FB00C02F4000C00C4000B589B0BE
S31560044B10059004910392059B5B6807930598FFF7DC
S31560044B20B9FF034683F00103DBB2002B0CD0059B6F
S31560044B301B68079A0B490C4852F037FD094B1B79E1
S31560044B4019460598FFF778FF10230093039B049A90
S31560044B500449054852F078FD0023184609B05DF80B
S31560044B6004FB00BF2001002000C02F4000B589B0BF
S31560044B70059004910392059B5B6807930598FFF77C
S31560044B8089FF034683F00103DBB2002B0CD0059B3F
S31560044B901B68079A0B490C4852F007FD094B1B79B1
S31560044BA019460598FFF748FF10230093039B049A60
S31560044BB00449054852F0D4FD0023184609B05DF84F
S31560044BC004FB00BF2001002000C02F4000B58DB05B
S31560044BD00590049103920293039B03F00F03002B49
S31560044BE002D06FF0210349E0059B5B680B9305983F
S31560044BF0FFF750FF034683F00103DBB2002B0CD0B2
S31560044C00059B1B680B9A1F491F4852F0CEFC1D4B2F
S31560044C101B7919460598FFF70FFF049B002B19D1E2
S31560044C20039B103B0E9AD11807AB1022184653F01B
S31560044C30DDFD029B0193039B00930F9B0E9A114922
S31560044C40114852F0C2FE07AB10221946029853F07F
S31560044C50CDFD12E0029B0193039B00930F9B0E9A7A
S31560044C600849094852F008FE039B103B0F9A134407
S31560044C7010221946029853F0B9FD002318460DB068
S31560044C805DF804FB2001002000C02F4000B585B00C
S31560044C900190012303930023019A0849084853F0BD
S31560044CA0D7F80390039B002B02D06FF0340300E027
S31560044CB00023184605B05DF804FB00BF2001002000
S31560044CC000C02F4000B585B0019000910123039385
S31560044CD04023009A0199074853F0FBF80390039B1D
S31560044CE0002B02D06FF0340300E00023184605B0B1
S31560044CF05DF804FB00C02F4000B587B003900291B5
S31560044D00019201230593019B029A0399074853F084
S31560044D10E0F80590059B002B02D06FF0340300E0A9
S31560044D200023184607B05DF804FB00BF00C02F409F
S31560044D3000B585B001900091012303930023009A86
S31560044D400199074839F0C2FE0390039B002B02D0F9
S31560044D506FF0340300E00023184605B05DF804FBE9
S31560044D6000C02F4000B585B00190009101230393E4
S31560044D70009B002B06D10123019A0849084853F089
S31560044D8067F80390039B002B02D06FF0360300E0B4
S31560044D900023184605B05DF804FB00BF200100201F
S31560044DA000C02F4000B585B00190009101230393A4
S31560044DB04023009A0199074853F08BF80390039BAC
S31560044DC0002B02D06FF0360300E00023184605B0CE
S31560044DD05DF804FB00C02F4000B587B003900291D4
S31560044DE0019201230593019B029A0399074853F0A4
S31560044DF070F80590059B002B02D06FF0360300E037
S31560044E000023184607B05DF804FB00BF00C02F40BE
S31560044E1000B585B001900091012303930023009AA5
S31560044E200199074839F052FE0390039B002B02D088
S31560044E306FF0360300E00023184605B05DF804FB06
S31560044E4000C02F4000B587B0039002910192009391
S31560044E5000230593019A0299084853F033FB0590A1
S31560044E60059B002B04D1009B019A1A60002300E085
S31560044E70059B184607B05DF804FB00BF00C00C40F4
S31560044E8084B0039002910192039B1B68029AD31A21
S31560044E90002B02DC6FF05F03ACE0039B1B681B789E
S31560044EA05BB2002B09DB039B1B68591C039A1160D8
S31560044EB01B781A46019B1A6090E0039B1B681B785B
S31560044EC003F07F03013B032B00F2858001A252F8B5
S31560044ED023F000BFE54E0460114F0460474F046041
S31560044EE0894F0460039B1B68029AD31A012B02DC68
S31560044EF06FF05F037EE0039B1B6801331B781A46E1
S31560044F00019B1A60039B1B689A1C039B1A6065E0ED
S31560044F10039B1B68029AD31A022B02DC6FF05F03B1
S31560044F2068E0039B1B6801331B781B02039A1268B3
S31560044F30023212781A43019B1A60039B1B68DA1CBF
S31560044F40039B1A604AE0039B1B68029AD31A032BDD
S31560044F5002DC6FF05F034DE0039B1B6801331B7833
S31560044F601A04039B1B6802331B781B021343039AC0
S31560044F701268033212781A43019B1A60039B1B68FA
S31560044F801A1D039B1A6029E0039B1B68029AD31AB5
S31560044F90042B02DC6FF05F032CE0039B1B68013378
S31560044FA01B781A06039B1B6802331B781B041A437F
S31560044FB0039B1B6803331B781B021343039A126813
S31560044FC0043212781A43019B1A60039B1B685A1DAC
S31560044FD0039B1A6002E06FF063030BE0019B1B689E
S31560044FE0039A126802998A1A934202D96FF05F0390
S31560044FF000E00023184604B0704700BF8AB00390EF
S3156004500002910192009300230793079B0893089BE0
S3156004501009936FE00023069305E0099B0133099326
S31560045020069B01330693099A0A9B9A4205D2009A13
S31560045030099B13441B78202BEFD0099A0A9B9A424A
S315600450405DD00A9A099BD31A012B0CD9009A099B45
S3156004505013441B780D2B06D1099B0133009A134424
S315600450601B780A2B40D0009A099B13441B780A2BA1
S315600450703CD0069B002B02D06FF02B03D0E0009A45
S31560045080099B13441B783D2B08D1079B0133079377
S31560045090079B022B02D96FF02B03C1E0009A099B90
S315600450A013441B785BB2002B08DB009A099B1344FC
S315600450B01B781A465C4B9B5C7F2B02D16FF02B03EB
S315600450C0AEE0009A099B13441B781A46564B9B5CC8
S315600450D03F2B05D8079B002B02D06FF02B039FE074
S315600450E0089B0133089302E000BF00E000BF099B00
S315600450F001330993099A0A9B9A428BD300E000BF55
S31560045100089B002B04D1019B00221A60002387E0D0
S31560045110089BDA0813465B0013445B001946089B38
S3156004512003F0070213465B0013445B000733DB0896
S315600451300B440893089A079BD31A0893039B002B86
S3156004514003D0029A089B9A4205D2019B089A1A6078
S315600451506FF0290364E00323079300230693069BF9
S315600451600893039B059351E0009B1B780D2B46D057
S31560045170009B1B780A2B42D0009B1B78202B3ED0C9
S31560045180009B1B781A46284B9B5C402B0CBF012363
S315600451900023DBB21A46079B9B1A0793069B9A0168
S315600451A0009B1B781946204B5B5C03F03F0313435B
S315600451B00693089B01330893089B042B20D1002394
S315600451C00893079B002B06D0069B190C059B5A1C5B
S315600451D00592CAB21A70079B012B06D9069B190A57
S315600451E0059B5A1C0592CAB21A70079B022B07D9F3
S315600451F0059B5A1C0592069AD2B21A7000E000BF4B
S31560045200099B013B0993009B01330093099B002B87
S31560045210AAD1059A039BD31A1A46019B1A600023E6
S3156004522018460AB0704700BFB09A096070B598B066
S3156004523003900291019200930021009842F078FC59
S315600452400346002B02D16FF00B038AE210AB1846BB
S3156004525041F08AFE0DAB184641F086FE0AAB18464D
S3156004526041F082FE07AB184641F07EFE04AB184659
S3156004527041F07AFE0099019842F047FB0346002B01
S3156004528019DA039B002B08D00021039842F019F821
S315600452901790179B002B40F01E82029B002B08D0B0
S315600452A00199029841F038FF1790179B002B40F044
S315600452B01482002355E210AB0199184641F02CFF85
S315600452C01790179B002B40F00A820DAB0099184685
S315600452D041F022FF1790179B002B40F002820123B6
S315600452E00D930D9B1093019B5B689A1C0AAB114648
S315600452F0184641F06CFE1790179B002B40F0F38123
S315600453000AAB0021184641F0DCFF1790179B002B6F
S3156004531040F0EB8107AB0221184641F058FE179026
S31560045320179B002B40F0E38104AB0321184641F040
S315600453304EFE1790179B002B40F0DB810DAB184691
S3156004534042F052F8034603F01F031593159B1E2B78
S3156004535017D8159BC3F11F03159310AB15991846FF
S3156004536042F095F91790179B002B40F0C4810DAB62
S315600453701599184642F08BF91790179B002B02D0AB
S31560045380DAE100231593119B013B14930E9B013BB9
S315600453901393149A139BD31A5A010DAB11461846EC
S315600453A042F075F91790179B002B40F0A68113E025
S315600453B00C9A1499139BCB1A9B0013441A680132F6
S315600453C01A600DAA10A910AB184642F080FD17901A
S315600453D0179B002B40F093810DAA10AB114618461B
S315600453E042F010FB0346002BE2DA149A139BD31A9D
S315600453F05A010DAB1146184642F0EDF91790179B0A
S31560045400002B40F07E81149B169328E1129A169B1A
S315600454109B0013441A680F99139B9B000B441B68EB
S315600454209A420CD30C9A1699139BC91A6FF040438F
S315600454300B449B0013444FF0FF321A6021E0129A2A
S31560045440169B9B0013441868129A16996FF0404392
S315600454500B449B0013441D680F9A139B9B001344D3
S315600454601E680C9A1699139BC91A6FF040430B4435
S315600454709B00D41800233246294643F004FE0346B3
S3156004548023600C9A1699139BC91A6FF040430B4418
S315600454909B0013441A6801321A600C9A1699139B7E
S315600454A0C91A6FF040430B449B0013441A68013ACF
S315600454B01A6007AB0021184641F003FF1790179B4B
S315600454C0002B40F02081139B002B08D00F9A139970
S315600454D06FF040430B449B0013441B6800E00023B9
S315600454E0099A13600F9A139B9B001A44099B043311
S315600454F012681A600C9A1699139BC91A6FF0404386
S315600455000B449B0013441A6807A907AB184643F07B
S31560045510A2FD1790179B002B40F0F78004AB002187
S31560045520184641F0CEFE1790179B002B40F0EF8093
S31560045530169B012B07D9129A16998B4B0B449B0029
S3156004554013441B6800E00023069A1360169B002B25
S3156004555008D0129A16996FF040430B449B0013448B
S315600455601B6800E00023069A04321360129A169BA5
S315600455709B001A44069B083312681A6004AA07AB98
S315600455801146184642F03EFA0346002B85DC0C9A17
S315600455901699139BC91A6FF040430B449B0013443E
S315600455A01A680DA907AB184643F055FD1790179B6B
S315600455B0002B40F0AE80169A139BD31A013B5A0116
S315600455C007AB1146184642F062F81790179B002BFA
S315600455D040F0A18007AA10A910AB184642F077FCE8
S315600455E01790179B002B40F0988010AB002118464B
S315600455F042F09EFA0346002B2EDA0DAA07AB11463B
S31560045600184641F089FD1790179B002B40F0878060
S31560045610169A139BD31A013B5A0107AB11461846D7
S3156004562042F035F81790179B002B7AD107AA10A978
S3156004563010AB184642F002FC1790179B002B72D1F0
S315600456400C9A1699139BC91A6FF040430B449B003E
S3156004565013441A68013A1A60169B013B1693169A0C
S31560045660139B9A423FF6D2AE039B002B10D00AAB33
S315600456701946039841F050FD1790179B002B54D19F
S31560045680019B1B68009A126802FB03F2039B1A6073
S31560045690029B002B4BD010AB1599184642F09BF831
S315600456A01790179B002B44D1019B1B68109310AB7A
S315600456B01946029841F030FD1790179B002B3AD19A
S315600456C00021029842F034FA0346002B2FD1029B44
S315600456D001221A6030E000BF2EE000BF2CE000BF5C
S315600456E02AE000BF28E000BF26E000BF24E000BF38
S315600456F022E000BF20E000BF1EE000BF1CE000BF48
S315600457001AE000BF18E000BF16E000BF14E000BF57
S3156004571012E000BF10E000BF0EE000BF0CE000BF67
S315600457200AE000BF08E000BF06E000BF04E000BF77
S3156004573002E000BF00E000BF10AB184641F022FC57
S315600457400DAB184641F01EFC0AAB184641F01AFC34
S3156004575007AB184641F016FC04AB184641F012FC40
S31560045760179B184618B070BDFEFFFF3F00B587B0A3
S31560045770019000230593019B9B681B6803F001035A
S31560045780002B02D16FF00D032EE00023049322E078
S31560045790174A049B52F823301946019842F0C8F917
S315600457A00346002B01DC01231EE0114A049B52F8D8
S315600457B0232003AB0199184643F001FD0590059B30
S315600457C0002B0FD1039B002B02D16FF00D030BE06E
S315600457D0049B01330493064A049B52F82330002B3E
S315600457E0D6DC00E000BF059B184607B05DF804FBF5
S315600457F0309B096084B003468DF807300B4B0393E6
S315600458000BE0039B1B789DF807209A4202D1039B09
S315600458105B6807E0039B08330393039B5B68002B79
S31560045820EFD10023184604B0704700BF7CA009601E
S3156004583084B0034600918DF8073013468DF8063020
S31560045840124B03931AE0039B5B689B691B789DF874
S3156004585007209A420FD1039B5B685A68009B9A4261
S3156004586009D1039B5B685B789DF806209A4202D156
S31560045870039B5B6807E0039B08330393039B5B68A6
